{
  "contractName": "Banking",
  "abi": [
    {
      "inputs": [],
      "stateMutability": "nonpayable",
      "type": "constructor"
    },
    {
      "anonymous": false,
      "inputs": [
        {
          "indexed": true,
          "internalType": "address",
          "name": "account",
          "type": "address"
        },
        {
          "indexed": false,
          "internalType": "uint256",
          "name": "amount",
          "type": "uint256"
        }
      ],
      "name": "Deposit",
      "type": "event"
    },
    {
      "anonymous": false,
      "inputs": [
        {
          "indexed": true,
          "internalType": "address",
          "name": "from",
          "type": "address"
        },
        {
          "indexed": true,
          "internalType": "address",
          "name": "to",
          "type": "address"
        },
        {
          "indexed": false,
          "internalType": "uint256",
          "name": "amount",
          "type": "uint256"
        }
      ],
      "name": "Transfer",
      "type": "event"
    },
    {
      "anonymous": false,
      "inputs": [
        {
          "indexed": true,
          "internalType": "address",
          "name": "account",
          "type": "address"
        },
        {
          "indexed": false,
          "internalType": "uint256",
          "name": "amount",
          "type": "uint256"
        }
      ],
      "name": "Withdrawal",
      "type": "event"
    },
    {
      "inputs": [],
      "name": "owner",
      "outputs": [
        {
          "internalType": "address",
          "name": "",
          "type": "address"
        }
      ],
      "stateMutability": "view",
      "type": "function",
      "constant": true
    },
    {
      "inputs": [],
      "name": "savingsInterestRate",
      "outputs": [
        {
          "internalType": "uint256",
          "name": "",
          "type": "uint256"
        }
      ],
      "stateMutability": "view",
      "type": "function",
      "constant": true
    },
    {
      "inputs": [
        {
          "internalType": "enum Banking.AccountType",
          "name": "accountType",
          "type": "uint8"
        }
      ],
      "name": "createAccount",
      "outputs": [],
      "stateMutability": "nonpayable",
      "type": "function"
    },
    {
      "inputs": [
        {
          "internalType": "address",
          "name": "account",
          "type": "address"
        }
      ],
      "name": "deleteAccount",
      "outputs": [],
      "stateMutability": "nonpayable",
      "type": "function"
    },
    {
      "inputs": [],
      "name": "deposit",
      "outputs": [],
      "stateMutability": "payable",
      "type": "function",
      "payable": true
    },
    {
      "inputs": [
        {
          "internalType": "uint256",
          "name": "amount",
          "type": "uint256"
        }
      ],
      "name": "withdraw",
      "outputs": [],
      "stateMutability": "nonpayable",
      "type": "function"
    },
    {
      "inputs": [],
      "name": "getBalance",
      "outputs": [
        {
          "internalType": "uint256",
          "name": "",
          "type": "uint256"
        }
      ],
      "stateMutability": "view",
      "type": "function",
      "constant": true
    },
    {
      "inputs": [
        {
          "internalType": "address",
          "name": "to",
          "type": "address"
        },
        {
          "internalType": "uint256",
          "name": "amount",
          "type": "uint256"
        }
      ],
      "name": "transfer",
      "outputs": [],
      "stateMutability": "nonpayable",
      "type": "function"
    },
    {
      "inputs": [
        {
          "internalType": "address",
          "name": "account",
          "type": "address"
        }
      ],
      "name": "calculateInterest",
      "outputs": [],
      "stateMutability": "nonpayable",
      "type": "function"
    }
  ],
  "bytecode": "0x60806040526005600255348015610014575f80fd5b50335f806101000a81548173ffffffffffffffffffffffffffffffffffffffff021916908373ffffffffffffffffffffffffffffffffffffffff160217905550611530806100615f395ff3fe608060405260043610610085575f3560e01c80638da5cb5b116100585780638da5cb5b1461012d578063a9059cbb14610157578063cc3beaec1461017f578063d0e30db0146101a7578063e11932cf146101b157610085565b806312065fe014610089578063196a29eb146100b35780632e1a7d4d146100dd5780634c1b64cb14610105575b5f80fd5b348015610094575f80fd5b5061009d6101d9565b6040516100aa9190610e55565b60405180910390f35b3480156100be575f80fd5b506100c76102ac565b6040516100d49190610e55565b60405180910390f35b3480156100e8575f80fd5b5061010360048036038101906100fe9190610e9c565b6102b2565b005b348015610110575f80fd5b5061012b60048036038101906101269190610f21565b6104ac565b005b348015610138575f80fd5b5061014161061f565b60405161014e9190610f5b565b60405180910390f35b348015610162575f80fd5b5061017d60048036038101906101789190610f74565b610642565b005b34801561018a575f80fd5b506101a560048036038101906101a09190610fd5565b6108f2565b005b6101af610a48565b005b3480156101bc575f80fd5b506101d760048036038101906101d29190610f21565b610bbc565b005b5f60015f3373ffffffffffffffffffffffffffffffffffffffff1673ffffffffffffffffffffffffffffffffffffffff1681526020019081526020015f206002015f9054906101000a900460ff16610266576040517f08c379a000000000000000000000000000000000000000000000000000000000815260040161025d9061105a565b60405180910390fd5b60015f3373ffffffffffffffffffffffffffffffffffffffff1673ffffffffffffffffffffffffffffffffffffffff1681526020019081526020015f2060010154905090565b60025481565b60015f3373ffffffffffffffffffffffffffffffffffffffff1673ffffffffffffffffffffffffffffffffffffffff1681526020019081526020015f206002015f9054906101000a900460ff1661033e576040517f08c379a00000000000000000000000000000000000000000000000000000000081526004016103359061105a565b60405180910390fd5b60015f3373ffffffffffffffffffffffffffffffffffffffff1673ffffffffffffffffffffffffffffffffffffffff1681526020019081526020015f20600101548111156103c1576040517f08c379a00000000000000000000000000000000000000000000000000000000081526004016103b8906110c2565b60405180910390fd5b8060015f3373ffffffffffffffffffffffffffffffffffffffff1673ffffffffffffffffffffffffffffffffffffffff1681526020019081526020015f206001015f828254610410919061110d565b925050819055503373ffffffffffffffffffffffffffffffffffffffff166108fc8290811502906040515f60405180830381858888f1935050505015801561045a573d5f803e3d5ffd5b503373ffffffffffffffffffffffffffffffffffffffff167f7fcf532c15f0a6db0bd6d0e038bea71d30d808c7d98cb3bf7268a95bf5081b65826040516104a19190610e55565b60405180910390a250565b5f8054906101000a900473ffffffffffffffffffffffffffffffffffffffff1673ffffffffffffffffffffffffffffffffffffffff163373ffffffffffffffffffffffffffffffffffffffff1614610539576040517f08c379a0000000000000000000000000000000000000000000000000000000008152600401610530906111b0565b60405180910390fd5b60015f8273ffffffffffffffffffffffffffffffffffffffff1673ffffffffffffffffffffffffffffffffffffffff1681526020019081526020015f206002015f9054906101000a900460ff166105c5576040517f08c379a00000000000000000000000000000000000000000000000000000000081526004016105bc90611218565b60405180910390fd5b5f60015f8373ffffffffffffffffffffffffffffffffffffffff1673ffffffffffffffffffffffffffffffffffffffff1681526020019081526020015f206002015f6101000a81548160ff02191690831515021790555050565b5f8054906101000a900473ffffffffffffffffffffffffffffffffffffffff1681565b60015f3373ffffffffffffffffffffffffffffffffffffffff1673ffffffffffffffffffffffffffffffffffffffff1681526020019081526020015f206002015f9054906101000a900460ff166106ce576040517f08c379a00000000000000000000000000000000000000000000000000000000081526004016106c59061105a565b60405180910390fd5b60015f8373ffffffffffffffffffffffffffffffffffffffff1673ffffffffffffffffffffffffffffffffffffffff1681526020019081526020015f206002015f9054906101000a900460ff1661075a576040517f08c379a000000000000000000000000000000000000000000000000000000000815260040161075190611280565b60405180910390fd5b60015f3373ffffffffffffffffffffffffffffffffffffffff1673ffffffffffffffffffffffffffffffffffffffff1681526020019081526020015f20600101548111156107dd576040517f08c379a00000000000000000000000000000000000000000000000000000000081526004016107d4906110c2565b60405180910390fd5b8060015f3373ffffffffffffffffffffffffffffffffffffffff1673ffffffffffffffffffffffffffffffffffffffff1681526020019081526020015f206001015f82825461082c919061110d565b925050819055508060015f8473ffffffffffffffffffffffffffffffffffffffff1673ffffffffffffffffffffffffffffffffffffffff1681526020019081526020015f206001015f828254610882919061129e565b925050819055508173ffffffffffffffffffffffffffffffffffffffff163373ffffffffffffffffffffffffffffffffffffffff167fddf252ad1be2c89b69c2b068fc378daa952ba7f163c4a11628f55a4df523b3ef836040516108e69190610e55565b60405180910390a35050565b60015f3373ffffffffffffffffffffffffffffffffffffffff1673ffffffffffffffffffffffffffffffffffffffff1681526020019081526020015f206002015f9054906101000a900460ff161561097f576040517f08c379a00000000000000000000000000000000000000000000000000000000081526004016109769061131b565b60405180910390fd5b604051806060016040528082600181111561099d5761099c611339565b5b81526020015f81526020016001151581525060015f3373ffffffffffffffffffffffffffffffffffffffff1673ffffffffffffffffffffffffffffffffffffffff1681526020019081526020015f205f820151815f015f6101000a81548160ff02191690836001811115610a1457610a13611339565b5b0217905550602082015181600101556040820151816002015f6101000a81548160ff02191690831515021790555090505050565b60015f3373ffffffffffffffffffffffffffffffffffffffff1673ffffffffffffffffffffffffffffffffffffffff1681526020019081526020015f206002015f9054906101000a900460ff16610ad4576040517f08c379a0000000000000000000000000000000000000000000000000000000008152600401610acb9061105a565b60405180910390fd5b5f3411610b16576040517f08c379a0000000000000000000000000000000000000000000000000000000008152600401610b0d906113d6565b60405180910390fd5b3460015f3373ffffffffffffffffffffffffffffffffffffffff1673ffffffffffffffffffffffffffffffffffffffff1681526020019081526020015f206001015f828254610b65919061129e565b925050819055503373ffffffffffffffffffffffffffffffffffffffff167fe1fffcc4923d04b559f4d29a8bfc6cda04eb5b0d3c460751c2402c5c5cc9109c34604051610bb29190610e55565b60405180910390a2565b5f8054906101000a900473ffffffffffffffffffffffffffffffffffffffff1673ffffffffffffffffffffffffffffffffffffffff163373ffffffffffffffffffffffffffffffffffffffff1614610c49576040517f08c379a0000000000000000000000000000000000000000000000000000000008152600401610c40906111b0565b60405180910390fd5b60015f8273ffffffffffffffffffffffffffffffffffffffff1673ffffffffffffffffffffffffffffffffffffffff1681526020019081526020015f206002015f9054906101000a900460ff16610cd5576040517f08c379a0000000000000000000000000000000000000000000000000000000008152600401610ccc9061105a565b60405180910390fd5b5f6001811115610ce857610ce7611339565b5b60015f8373ffffffffffffffffffffffffffffffffffffffff1673ffffffffffffffffffffffffffffffffffffffff1681526020019081526020015f205f015f9054906101000a900460ff166001811115610d4657610d45611339565b5b14610d86576040517f08c379a0000000000000000000000000000000000000000000000000000000008152600401610d7d9061143e565b60405180910390fd5b5f606460025460015f8573ffffffffffffffffffffffffffffffffffffffff1673ffffffffffffffffffffffffffffffffffffffff1681526020019081526020015f2060010154610dd7919061145c565b610de191906114ca565b90508060015f8473ffffffffffffffffffffffffffffffffffffffff1673ffffffffffffffffffffffffffffffffffffffff1681526020019081526020015f206001015f828254610e32919061129e565b925050819055505050565b5f819050919050565b610e4f81610e3d565b82525050565b5f602082019050610e685f830184610e46565b92915050565b5f80fd5b610e7b81610e3d565b8114610e85575f80fd5b50565b5f81359050610e9681610e72565b92915050565b5f60208284031215610eb157610eb0610e6e565b5b5f610ebe84828501610e88565b91505092915050565b5f73ffffffffffffffffffffffffffffffffffffffff82169050919050565b5f610ef082610ec7565b9050919050565b610f0081610ee6565b8114610f0a575f80fd5b50565b5f81359050610f1b81610ef7565b92915050565b5f60208284031215610f3657610f35610e6e565b5b5f610f4384828501610f0d565b91505092915050565b610f5581610ee6565b82525050565b5f602082019050610f6e5f830184610f4c565b92915050565b5f8060408385031215610f8a57610f89610e6e565b5b5f610f9785828601610f0d565b9250506020610fa885828601610e88565b9150509250929050565b60028110610fbe575f80fd5b50565b5f81359050610fcf81610fb2565b92915050565b5f60208284031215610fea57610fe9610e6e565b5b5f610ff784828501610fc1565b91505092915050565b5f82825260208201905092915050565b7f4163636f756e74206973206e6f742061637469766500000000000000000000005f82015250565b5f611044601583611000565b915061104f82611010565b602082019050919050565b5f6020820190508181035f83015261107181611038565b9050919050565b7f496e73756666696369656e742062616c616e63650000000000000000000000005f82015250565b5f6110ac601483611000565b91506110b782611078565b602082019050919050565b5f6020820190508181035f8301526110d9816110a0565b9050919050565b7f4e487b71000000000000000000000000000000000000000000000000000000005f52601160045260245ffd5b5f61111782610e3d565b915061112283610e3d565b925082820390508181111561113a576111396110e0565b5b92915050565b7f4f6e6c7920746865206f776e65722063616e20706572666f726d2074686973205f8201527f616374696f6e0000000000000000000000000000000000000000000000000000602082015250565b5f61119a602683611000565b91506111a582611140565b604082019050919050565b5f6020820190508181035f8301526111c78161118e565b9050919050565b7f4163636f756e7420646f6573206e6f74206578697374000000000000000000005f82015250565b5f611202601683611000565b915061120d826111ce565b602082019050919050565b5f6020820190508181035f83015261122f816111f6565b9050919050565b7f526563697069656e74206163636f756e74206973206e6f7420616374697665005f82015250565b5f61126a601f83611000565b915061127582611236565b602082019050919050565b5f6020820190508181035f8301526112978161125e565b9050919050565b5f6112a882610e3d565b91506112b383610e3d565b92508282019050808211156112cb576112ca6110e0565b5b92915050565b7f4163636f756e7420616c726561647920657869737473000000000000000000005f82015250565b5f611305601683611000565b9150611310826112d1565b602082019050919050565b5f6020820190508181035f830152611332816112f9565b9050919050565b7f4e487b71000000000000000000000000000000000000000000000000000000005f52602160045260245ffd5b7f4465706f73697420616d6f756e74206d757374206265206772656174657220745f8201527f68616e207a65726f000000000000000000000000000000000000000000000000602082015250565b5f6113c0602883611000565b91506113cb82611366565b604082019050919050565b5f6020820190508181035f8301526113ed816113b4565b9050919050565b7f4e6f74206120536176696e6773206163636f756e7400000000000000000000005f82015250565b5f611428601583611000565b9150611433826113f4565b602082019050919050565b5f6020820190508181035f8301526114558161141c565b9050919050565b5f61146682610e3d565b915061147183610e3d565b925082820261147f81610e3d565b91508282048414831517611496576114956110e0565b5b5092915050565b7f4e487b71000000000000000000000000000000000000000000000000000000005f52601260045260245ffd5b5f6114d482610e3d565b91506114df83610e3d565b9250826114ef576114ee61149d565b5b82820490509291505056fea264697066735822122005a6e861250a044de25b64bf578de402e96cdbbf6bd24a7776c198c032f9eb1e64736f6c63430008150033",
  "immutableReferences": {},
  "source": "// SPDX-License-Identifier: MIT\npragma solidity ^0.8.0;\n\ncontract Banking {\n    enum AccountType { Savings, Checking }\n    \n    struct Account {\n        AccountType accountType;\n        uint256 balance;\n        bool isActive;\n    }\n    \n    address public owner;\n    mapping(address => Account) private accounts;\n\n    // Interest rate for Savings accounts (e.g., 5%)\n    uint256 public savingsInterestRate = 5;\n\n    // Event to log deposits\n    event Deposit(address indexed account, uint256 amount);\n\n    // Event to log withdrawals\n    event Withdrawal(address indexed account, uint256 amount);\n\n    // Event to log account transfers\n    event Transfer(address indexed from, address indexed to, uint256 amount);\n\n    constructor() {\n        owner = msg.sender;\n    }\n\n    // Modifier to restrict certain functions to the owner\n    modifier onlyOwner() {\n        require(msg.sender == owner, \"Only the owner can perform this action\");\n        _;\n    }\n\n    // Modifier to check if the account is active\n    modifier onlyActiveAccount() {\n        require(accounts[msg.sender].isActive, \"Account is not active\");\n        _;\n    }\n\n    // Function to create an account\n    function createAccount(AccountType accountType) public {\n        require(!accounts[msg.sender].isActive, \"Account already exists\");\n        accounts[msg.sender] = Account(accountType, 0, true);\n    }\n\n    // Function to delete an account (only the owner can delete accounts)\n    function deleteAccount(address account) public onlyOwner {\n        require(accounts[account].isActive, \"Account does not exist\");\n        accounts[account].isActive = false;\n    }\n\n    // Function to deposit Ether into the bank\n    function deposit() public payable onlyActiveAccount {\n        require(msg.value > 0, \"Deposit amount must be greater than zero\");\n        accounts[msg.sender].balance += msg.value;\n        emit Deposit(msg.sender, msg.value);\n    }\n\n    // Function to withdraw Ether from the bank\n    function withdraw(uint256 amount) public onlyActiveAccount {\n        require(amount <= accounts[msg.sender].balance, \"Insufficient balance\");\n        accounts[msg.sender].balance -= amount;\n        payable(msg.sender).transfer(amount);\n        emit Withdrawal(msg.sender, amount);\n    }\n\n    // Function to check the balance of the caller\n    function getBalance() public view onlyActiveAccount returns (uint256) {\n        return accounts[msg.sender].balance;\n    }\n\n    // Function to transfer funds between accounts\n    function transfer(address to, uint256 amount) public onlyActiveAccount {\n        require(accounts[to].isActive, \"Recipient account is not active\");\n        require(amount <= accounts[msg.sender].balance, \"Insufficient balance\");\n        accounts[msg.sender].balance -= amount;\n        accounts[to].balance += amount;\n        emit Transfer(msg.sender, to, amount);\n    }\n\n    // Function to calculate interest for Savings accounts (only the owner can call this)\n    function calculateInterest(address account) public onlyOwner {\n        require(accounts[account].isActive, \"Account is not active\");\n        require(accounts[account].accountType == AccountType.Savings, \"Not a Savings account\");\n        uint256 interest = (accounts[account].balance * savingsInterestRate) / 100;\n        accounts[account].balance += interest;\n    }\n}\n",
  "sourcePath": "/home/adarsh/Projects/blockchain/solidity/project2/contracts/Banking.sol",
  "compiler": {
    "name": "solc",
    "version": "0.8.21+commit.d9974bed.Emscripten.clang"
  },
  "schemaVersion": "3.4.16",
  "updatedAt": "2024-07-10T17:05:54.556Z",
  "networkType": "ethereum",
  "devdoc": {
    "kind": "dev",
    "methods": {},
    "version": 1
  },
  "userdoc": {
    "kind": "user",
    "methods": {},
    "version": 1
  }
}